{
  "contractName": "CrowdFund",
  "abi": [
    {
      "constant": true,
      "inputs": [
        {
          "name": "",
          "type": "address"
        }
      ],
      "name": "contributors",
      "outputs": [
        {
          "name": "",
          "type": "bool"
        }
      ],
      "payable": false,
      "stateMutability": "view",
      "type": "function"
    },
    {
      "constant": true,
      "inputs": [],
      "name": "minimumPledge",
      "outputs": [
        {
          "name": "",
          "type": "uint256"
        }
      ],
      "payable": false,
      "stateMutability": "view",
      "type": "function"
    },
    {
      "constant": true,
      "inputs": [],
      "name": "manager",
      "outputs": [
        {
          "name": "",
          "type": "address"
        }
      ],
      "payable": false,
      "stateMutability": "view",
      "type": "function"
    },
    {
      "constant": true,
      "inputs": [],
      "name": "contributorsCount",
      "outputs": [
        {
          "name": "",
          "type": "uint256"
        }
      ],
      "payable": false,
      "stateMutability": "view",
      "type": "function"
    },
    {
      "constant": true,
      "inputs": [
        {
          "name": "",
          "type": "uint256"
        }
      ],
      "name": "requests",
      "outputs": [
        {
          "name": "description",
          "type": "string"
        },
        {
          "name": "value",
          "type": "uint256"
        },
        {
          "name": "recipient",
          "type": "address"
        },
        {
          "name": "complete",
          "type": "bool"
        },
        {
          "name": "approvalCount",
          "type": "uint256"
        }
      ],
      "payable": false,
      "stateMutability": "view",
      "type": "function"
    },
    {
      "inputs": [
        {
          "name": "_minPledge",
          "type": "uint256"
        },
        {
          "name": "creator",
          "type": "address"
        }
      ],
      "payable": false,
      "stateMutability": "nonpayable",
      "type": "constructor"
    },
    {
      "constant": false,
      "inputs": [],
      "name": "contribute",
      "outputs": [],
      "payable": true,
      "stateMutability": "payable",
      "type": "function"
    },
    {
      "constant": false,
      "inputs": [
        {
          "name": "description",
          "type": "string"
        },
        {
          "name": "value",
          "type": "uint256"
        },
        {
          "name": "recipient",
          "type": "address"
        }
      ],
      "name": "createRequest",
      "outputs": [],
      "payable": false,
      "stateMutability": "nonpayable",
      "type": "function"
    },
    {
      "constant": false,
      "inputs": [
        {
          "name": "_index",
          "type": "uint256"
        }
      ],
      "name": "approveRequest",
      "outputs": [],
      "payable": false,
      "stateMutability": "nonpayable",
      "type": "function"
    },
    {
      "constant": false,
      "inputs": [
        {
          "name": "_index",
          "type": "uint256"
        }
      ],
      "name": "finalizeRequest",
      "outputs": [],
      "payable": true,
      "stateMutability": "payable",
      "type": "function"
    },
    {
      "constant": true,
      "inputs": [],
      "name": "getSummary",
      "outputs": [
        {
          "name": "",
          "type": "uint256"
        },
        {
          "name": "",
          "type": "uint256"
        },
        {
          "name": "",
          "type": "uint256"
        },
        {
          "name": "",
          "type": "uint256"
        },
        {
          "name": "",
          "type": "address"
        }
      ],
      "payable": false,
      "stateMutability": "view",
      "type": "function"
    },
    {
      "constant": true,
      "inputs": [],
      "name": "getRequestsCount",
      "outputs": [
        {
          "name": "",
          "type": "uint256"
        }
      ],
      "payable": false,
      "stateMutability": "view",
      "type": "function"
    },
    {
      "constant": true,
      "inputs": [
        {
          "name": "indexes",
          "type": "uint256[]"
        }
      ],
      "name": "getRequests",
      "outputs": [
        {
          "name": "",
          "type": "string[]"
        },
        {
          "name": "",
          "type": "uint256[]"
        },
        {
          "name": "",
          "type": "address[]"
        },
        {
          "name": "",
          "type": "bool[]"
        },
        {
          "name": "",
          "type": "uint256[]"
        }
      ],
      "payable": false,
      "stateMutability": "view",
      "type": "function"
    }
  ],
  "bytecode": "0x60806040523480156200001157600080fd5b5060405160408062001b838339810180604052620000339190810190620000b0565b806000806101000a81548173ffffffffffffffffffffffffffffffffffffffff021916908373ffffffffffffffffffffffffffffffffffffffff16021790555081600181905550505062000163565b60008151905062000093816200012f565b92915050565b600081519050620000aa8162000149565b92915050565b60008060408385031215620000c457600080fd5b6000620000d48582860162000099565b9250506020620000e78582860162000082565b9150509250929050565b6000620000fe8262000105565b9050919050565b600073ffffffffffffffffffffffffffffffffffffffff82169050919050565b6000819050919050565b6200013a81620000f1565b81146200014657600080fd5b50565b620001548162000125565b81146200016057600080fd5b50565b611a1080620001736000396000f3fe6080604052600436106100a75760003560e01c8063481c6a7511610064578063481c6a75146101cb5780637569b3d7146101f657806381d12c58146102215780638a9cfd5514610262578063d7bb99ba1461028b578063d7d1bbdb14610295576100a7565b806303441006146100ac57806313e369c9146100c85780631f6d4942146101095780632e3dbde0146101465780633410452a146101715780634051ddac1461019c575b600080fd5b6100c660048036036100c19190810190611049565b6102be565b005b3480156100d457600080fd5b506100ef60048036036100ea9190810190610fa1565b6104a0565b604051610100959493929190611545565b60405180910390f35b34801561011557600080fd5b50610130600480360361012b9190810190610f78565b6107ab565b60405161013d91906115bb565b60405180910390f35b34801561015257600080fd5b5061015b6107cb565b60405161016891906116f0565b60405180910390f35b34801561017d57600080fd5b506101866107d1565b60405161019391906116f0565b60405180910390f35b3480156101a857600080fd5b506101b16107de565b6040516101c295949392919061170b565b60405180910390f35b3480156101d757600080fd5b506101e061083d565b6040516101ed919061152a565b60405180910390f35b34801561020257600080fd5b5061020b610862565b60405161021891906116f0565b60405180910390f35b34801561022d57600080fd5b5061024860048036036102439190810190611049565b610868565b6040516102599594939291906115d6565b60405180910390f35b34801561026e57600080fd5b5061028960048036036102849190810190610fe2565b610970565b005b610293610b19565b005b3480156102a157600080fd5b506102bc60048036036102b79190810190611049565b610bca565b005b6000809054906101000a900473ffffffffffffffffffffffffffffffffffffffff1673ffffffffffffffffffffffffffffffffffffffff163373ffffffffffffffffffffffffffffffffffffffff161461034d576040517f08c379a000000000000000000000000000000000000000000000000000000000815260040161034490611630565b60405180910390fd5b60006003828154811061035c57fe5b9060005260206000209060050201905060026004548161037857fe5b048160030154116103be576040517f08c379a00000000000000000000000000000000000000000000000000000000081526004016103b5906116d0565b60405180910390fd5b8060020160149054906101000a900460ff1615610410576040517f08c379a000000000000000000000000000000000000000000000000000000000815260040161040790611650565b60405180910390fd5b8060020160009054906101000a900473ffffffffffffffffffffffffffffffffffffffff1673ffffffffffffffffffffffffffffffffffffffff166108fc82600101549081150290604051600060405180830381858888f1935050505015801561047e573d6000803e3d6000fd5b5060018160020160146101000a81548160ff0219169083151502179055505050565b60608060608060608086516040519080825280602002602001820160405280156104de57816020015b60608152602001906001900390816104c95790505b509050606087516040519080825280602002602001820160405280156105135781602001602082028038833980820191505090505b509050606088516040519080825280602002602001820160405280156105485781602001602082028038833980820191505090505b5090506060895160405190808252806020026020018201604052801561057d5781602001602082028038833980820191505090505b50905060608a516040519080825280602002602001820160405280156105b25781602001602082028038833980820191505090505b50905060008090505b8b5181101561078d57600060038d83815181106105d457fe5b6020026020010151815481106105e657fe5b90600052602060002090600502019050806000018054600181600116156101000203166002900480601f01602080910402602001604051908101604052809291908181526020018280546001816001161561010002031660029004801561068e5780601f106106635761010080835404028352916020019161068e565b820191906000526020600020905b81548152906001019060200180831161067157829003601f168201915b505050505087838151811061069f57fe5b602002602001018190525080600101548683815181106106bb57fe5b6020026020010181815250508060020160009054906101000a900473ffffffffffffffffffffffffffffffffffffffff168583815181106106f857fe5b602002602001019073ffffffffffffffffffffffffffffffffffffffff16908173ffffffffffffffffffffffffffffffffffffffff16815250508060020160149054906101000a900460ff1684838151811061075057fe5b602002602001019015159081151581525050806003015483838151811061077357fe5b6020026020010181815250505080806001019150506105bb565b50848484848499509950995099509950505050505091939590929450565b60026020528060005260406000206000915054906101000a900460ff1681565b60015481565b6000600380549050905090565b60008060008060006001543073ffffffffffffffffffffffffffffffffffffffff16316003805490506004546000809054906101000a900473ffffffffffffffffffffffffffffffffffffffff16945094509450945094509091929394565b6000809054906101000a900473ffffffffffffffffffffffffffffffffffffffff1681565b60045481565b6003818154811061087557fe5b9060005260206000209060050201600091509050806000018054600181600116156101000203166002900480601f0160208091040260200160405190810160405280929190818152602001828054600181600116156101000203166002900480156109215780601f106108f657610100808354040283529160200191610921565b820191906000526020600020905b81548152906001019060200180831161090457829003601f168201915b5050505050908060010154908060020160009054906101000a900473ffffffffffffffffffffffffffffffffffffffff16908060020160149054906101000a900460ff16908060030154905085565b6000809054906101000a900473ffffffffffffffffffffffffffffffffffffffff1673ffffffffffffffffffffffffffffffffffffffff163373ffffffffffffffffffffffffffffffffffffffff16146109ff576040517f08c379a00000000000000000000000000000000000000000000000000000000081526004016109f690611630565b60405180910390fd5b610a07610d76565b6040518060a001604052808581526020018481526020018373ffffffffffffffffffffffffffffffffffffffff16815260200160001515815260200160008152509050600381908060018154018082558091505090600182039060005260206000209060050201600090919290919091506000820151816000019080519060200190610a94929190610dbd565b506020820151816001015560408201518160020160006101000a81548173ffffffffffffffffffffffffffffffffffffffff021916908373ffffffffffffffffffffffffffffffffffffffff16021790555060608201518160020160146101000a81548160ff0219169083151502179055506080820151816003015550505050505050565b600154341015610b5e576040517f08c379a0000000000000000000000000000000000000000000000000000000008152600401610b5590611690565b60405180910390fd5b6001600260003373ffffffffffffffffffffffffffffffffffffffff1673ffffffffffffffffffffffffffffffffffffffff16815260200190815260200160002060006101000a81548160ff021916908315150217905550600460008154809291906001019190505550565b600060038281548110610bd957fe5b90600052602060002090600502019050600260003373ffffffffffffffffffffffffffffffffffffffff1673ffffffffffffffffffffffffffffffffffffffff16815260200190815260200160002060009054906101000a900460ff16610c75576040517f08c379a0000000000000000000000000000000000000000000000000000000008152600401610c6c90611670565b60405180910390fd5b8060040160003373ffffffffffffffffffffffffffffffffffffffff1673ffffffffffffffffffffffffffffffffffffffff16815260200190815260200160002060009054906101000a900460ff1615610d04576040517f08c379a0000000000000000000000000000000000000000000000000000000008152600401610cfb906116b0565b60405180910390fd5b60018160040160003373ffffffffffffffffffffffffffffffffffffffff1673ffffffffffffffffffffffffffffffffffffffff16815260200190815260200160002060006101000a81548160ff02191690831515021790555080600301600081548092919060010191905055505050565b6040518060a001604052806060815260200160008152602001600073ffffffffffffffffffffffffffffffffffffffff168152602001600015158152602001600081525090565b828054600181600116156101000203166002900490600052602060002090601f016020900481019282601f10610dfe57805160ff1916838001178555610e2c565b82800160010185558215610e2c579182015b82811115610e2b578251825591602001919060010190610e10565b5b509050610e399190610e3d565b5090565b610e5f91905b80821115610e5b576000816000905550600101610e43565b5090565b90565b600081359050610e7181611991565b92915050565b600081359050610e86816119a8565b92915050565b600082601f830112610e9d57600080fd5b8135610eb0610eab8261178b565b61175e565b91508181835260208401935060208101905083856020840282011115610ed557600080fd5b60005b83811015610f055781610eeb8882610f63565b845260208401935060208301925050600181019050610ed8565b5050505092915050565b600082601f830112610f2057600080fd5b8135610f33610f2e826117b3565b61175e565b91508082526020830160208301858383011115610f4f57600080fd5b610f5a83828461193e565b50505092915050565b600081359050610f72816119bf565b92915050565b600060208284031215610f8a57600080fd5b6000610f9884828501610e62565b91505092915050565b600060208284031215610fb357600080fd5b600082013567ffffffffffffffff811115610fcd57600080fd5b610fd984828501610e8c565b91505092915050565b600080600060608486031215610ff757600080fd5b600084013567ffffffffffffffff81111561101157600080fd5b61101d86828701610f0f565b935050602061102e86828701610f63565b925050604061103f86828701610e77565b9150509250925092565b60006020828403121561105b57600080fd5b600061106984828501610f63565b91505092915050565b600061107e83836110ce565b60208301905092915050565b6000611096838361128a565b60208301905092915050565b60006110ae83836112a8565b905092915050565b60006110c2838361150c565b60208301905092915050565b6110d7816118f6565b82525050565b6110e6816118f6565b82525050565b6110f5816118e4565b82525050565b600061110682611813565b611110818561187e565b935061111b836117df565b8060005b8381101561114c5781516111338882611072565b975061113e8361184a565b92505060018101905061111f565b5085935050505092915050565b60006111648261181e565b61116e818561188f565b9350611179836117ec565b8060005b838110156111aa578151611191888261108a565b975061119c83611857565b92505060018101905061117d565b5085935050505092915050565b60006111c282611829565b6111cc81856118a0565b9350836020820285016111de856117f9565b8060005b8581101561121a57848403895281516111fb85826110a2565b945061120683611864565b925060208a019950506001810190506111e2565b50829750879550505050505092915050565b600061123782611834565b61124181856118b1565b935061124c83611806565b8060005b8381101561127d57815161126488826110b6565b975061126f83611871565b925050600181019050611250565b5085935050505092915050565b61129381611908565b82525050565b6112a281611908565b82525050565b60006112b38261183f565b6112bd81856118c2565b93506112cd81856020860161194d565b6112d681611980565b840191505092915050565b60006112ec8261183f565b6112f681856118d3565b935061130681856020860161194d565b61130f81611980565b840191505092915050565b60006113276015836118d3565b91507f53656e646572206e6f7420617574686f72697a656400000000000000000000006000830152602082019050919050565b60006113676021836118d3565b91507f526571756573742068617320616c7265616479206265656e20617070726f766560008301527f64000000000000000000000000000000000000000000000000000000000000006020830152604082019050919050565b60006113cd6024836118d3565b91507f53656e646572206e6f74206120636f6e7472696275746f7220746f2063616d7060008301527f6169676e000000000000000000000000000000000000000000000000000000006020830152604082019050919050565b6000611433601f836118d3565b91507f4574686572206c657373207468616e205b6d696e696d756d506c656467655d006000830152602082019050919050565b60006114736028836118d3565b91507f436f6e7472696275746f722063616e6e6f7420617070726f766520726571756560008301527f73742074776963650000000000000000000000000000000000000000000000006020830152604082019050919050565b60006114d96016836118d3565b91507f417070726f76616c206c657373207468616e20353025000000000000000000006000830152602082019050919050565b61151581611934565b82525050565b61152481611934565b82525050565b600060208201905061153f60008301846110ec565b92915050565b600060a082019050818103600083015261155f81886111b7565b90508181036020830152611573818761122c565b9050818103604083015261158781866110fb565b9050818103606083015261159b8185611159565b905081810360808301526115af818461122c565b90509695505050505050565b60006020820190506115d06000830184611299565b92915050565b600060a08201905081810360008301526115f081886112e1565b90506115ff602083018761151b565b61160c60408301866110dd565b6116196060830185611299565b611626608083018461151b565b9695505050505050565b600060208201905081810360008301526116498161131a565b9050919050565b600060208201905081810360008301526116698161135a565b9050919050565b60006020820190508181036000830152611689816113c0565b9050919050565b600060208201905081810360008301526116a981611426565b9050919050565b600060208201905081810360008301526116c981611466565b9050919050565b600060208201905081810360008301526116e9816114cc565b9050919050565b6000602082019050611705600083018461151b565b92915050565b600060a082019050611720600083018861151b565b61172d602083018761151b565b61173a604083018661151b565b611747606083018561151b565b61175460808301846110ec565b9695505050505050565b6000604051905081810181811067ffffffffffffffff8211171561178157600080fd5b8060405250919050565b600067ffffffffffffffff8211156117a257600080fd5b602082029050602081019050919050565b600067ffffffffffffffff8211156117ca57600080fd5b601f19601f8301169050602081019050919050565b6000602082019050919050565b6000602082019050919050565b6000602082019050919050565b6000602082019050919050565b600081519050919050565b600081519050919050565b600081519050919050565b600081519050919050565b600081519050919050565b6000602082019050919050565b6000602082019050919050565b6000602082019050919050565b6000602082019050919050565b600082825260208201905092915050565b600082825260208201905092915050565b600082825260208201905092915050565b600082825260208201905092915050565b600082825260208201905092915050565b600082825260208201905092915050565b60006118ef82611914565b9050919050565b600061190182611914565b9050919050565b60008115159050919050565b600073ffffffffffffffffffffffffffffffffffffffff82169050919050565b6000819050919050565b82818337600083830152505050565b60005b8381101561196b578082015181840152602081019050611950565b8381111561197a576000848401525b50505050565b6000601f19601f8301169050919050565b61199a816118e4565b81146119a557600080fd5b50565b6119b1816118f6565b81146119bc57600080fd5b50565b6119c881611934565b81146119d357600080fd5b5056fea265627a7a72305820f99e325fc00eac322d5ab7df5f883ed9529c5c7fbecc609074a263e0209f22606c6578706572696d656e74616cf50037",
  "source": "pragma experimental ABIEncoderV2;\npragma solidity >=0.4.22 <0.7.0;\n\ncontract CrowdFundFactory {\n    address[] public deployedCampaigns;\n\n    function createCampaign(uint _minPledge) public payable{\n        address newCampaign = address(new CrowdFund(_minPledge, msg.sender));\n        deployedCampaigns.push(newCampaign);\n    }\n\n    function getDeployedCampaigns() public view returns (address[] memory) {\n        return deployedCampaigns;\n    }\n}\n\ncontract CrowdFund {\n    struct Request {\n        string description;\n        uint value;\n        address payable recipient;\n        bool complete;\n        uint approvalCount;\n        mapping(address => bool) approvals;\n    }\n\n    address public manager;\n    uint public minimumPledge;\n    mapping(address => bool) public contributors;\n    Request[] public requests;\n    uint public contributorsCount;\n\n    modifier restricted() {\n        require(msg.sender == manager, \"Sender not authorized\");\n        _;\n    }\n\n    constructor(uint _minPledge, address creator) public {\n        manager = creator;\n        minimumPledge = _minPledge;\n    }\n\n    function contribute() public payable {\n        require(msg.value >= minimumPledge, \"Ether less than [minimumPledge]\");\n        contributors[msg.sender] = true;\n        contributorsCount++;\n    }\n\n    function createRequest(string memory description, uint value, address payable recipient) public restricted {\n        Request memory newRequest = Request({\n            description: description,\n            value: value,\n            recipient: recipient,\n            complete: false,\n            approvalCount: 0\n        });\n        requests.push(newRequest);\n    }\n\n    function approveRequest(uint _index) public{\n        Request storage request = requests[_index];\n        require(contributors[msg.sender], \"Sender not a contributor to campaign\");\n        require(!request.approvals[msg.sender], \"Contributor cannot approve request twice\");\n\n        request.approvals[msg.sender] = true;\n        request.approvalCount++;\n    }\n\n    function finalizeRequest(uint _index) public payable restricted{\n        Request storage request = requests[_index];\n        require(request.approvalCount > (contributorsCount/2), \"Approval less than 50%\");\n        require(!request.complete, \"Request has already been approved\");\n\n        request.recipient.transfer(request.value);\n        request.complete = true;\n      }\n\n      function getSummary() public view returns(uint, uint, uint, uint, address) {\n        return(\n        minimumPledge,\n          address(this).balance,\n          requests.length,\n          contributorsCount,\n          manager\n          );\n      }\n\n      function getRequestsCount() public view returns(uint){\n        return requests.length;\n      }\n\n      function getRequests(uint[] memory indexes) public view returns(string[] memory, uint[] memory,\n        address payable[] memory, bool[] memory, uint[] memory) {\n\n        string[] memory desc = new string[](indexes.length);\n        uint[] memory value = new uint[](indexes.length);\n        address payable[] memory addrs = new address payable[](indexes.length);\n        bool[] memory complete = new bool[](indexes.length);\n        uint[] memory approvalCount = new uint[](indexes.length);\n\n        for(uint i = 0; i < indexes.length; i++) {\n          Request storage request = requests[indexes[i]];\n          desc[i] = request.description;\n          value[i] = request.value;\n          addrs[i] = request.recipient;\n          complete[i] = request.complete;\n          approvalCount[i] = request.approvalCount;\n        }\n        return (desc, value, addrs, complete, approvalCount);\n      }\n}\n",
  "sourcePath": "/home/kifen/smartcontracts/crowdfund/contracts/CrowdFund.sol",
  "compiler": {
    "name": "solc",
    "version": "0.5.8+commit.23d335f2.Emscripten.clang"
  },
  "schemaVersion": "3.0.16",
  "updatedAt": "2019-11-07T00:06:46.053Z",
  "devdoc": {
    "methods": {}
  },
  "userdoc": {
    "methods": {}
  }
}